{
	"contracts/FundMe.sol": {
		"FundMe": {
			"abi": [
				{
					"inputs": [
						{
							"internalType": "address",
							"name": "",
							"type": "address"
						}
					],
					"name": "addressToAmountFunded",
					"outputs": [
						{
							"internalType": "uint256",
							"name": "",
							"type": "uint256"
						}
					],
					"stateMutability": "view",
					"type": "function"
				},
				{
					"inputs": [],
					"name": "fund",
					"outputs": [],
					"stateMutability": "payable",
					"type": "function"
				},
				{
					"inputs": [
						{
							"internalType": "uint256",
							"name": "",
							"type": "uint256"
						}
					],
					"name": "funders",
					"outputs": [
						{
							"internalType": "address",
							"name": "",
							"type": "address"
						}
					],
					"stateMutability": "view",
					"type": "function"
				},
				{
					"inputs": [],
					"name": "minUSD",
					"outputs": [
						{
							"internalType": "uint256",
							"name": "",
							"type": "uint256"
						}
					],
					"stateMutability": "view",
					"type": "function"
				}
			],
			"devdoc": {
				"kind": "dev",
				"methods": {},
				"version": 1
			},
			"evm": {
				"assembly": "    /* \"contracts/FundMe.sol\":1345:1804  contract FundMe{... */\n  mstore(0x40, 0x80)\n    /* \"contracts/FundMe.sol\":1426:1433  50*1e18 */\n  0x02b5e3af16b1880000\n    /* \"contracts/FundMe.sol\":1404:1433  uint256 public minUSD=50*1e18 */\n  0x00\n  sstore\n    /* \"contracts/FundMe.sol\":1345:1804  contract FundMe{... */\n  callvalue\n  dup1\n  iszero\n  tag_1\n  jumpi\n  0x00\n  dup1\n  revert\ntag_1:\n  pop\n  dataSize(sub_0)\n  dup1\n  dataOffset(sub_0)\n  0x00\n  codecopy\n  0x00\n  return\nstop\n\nsub_0: assembly {\n        /* \"contracts/FundMe.sol\":1345:1804  contract FundMe{... */\n      mstore(0x40, 0x80)\n      jumpi(tag_1, lt(calldatasize, 0x04))\n      shr(0xe0, calldataload(0x00))\n      dup1\n      0x3e47d6f3\n      eq\n      tag_2\n      jumpi\n      dup1\n      0xb60d4288\n      eq\n      tag_3\n      jumpi\n      dup1\n      0xdc0d3dff\n      eq\n      tag_4\n      jumpi\n      dup1\n      0xdc992aa0\n      eq\n      tag_5\n      jumpi\n    tag_1:\n      0x00\n      dup1\n      revert\n        /* \"contracts/FundMe.sol\":1469:1525  mapping (address=>uint256) public  addressToAmountFunded */\n    tag_2:\n      callvalue\n      dup1\n      iszero\n      tag_6\n      jumpi\n      0x00\n      dup1\n      revert\n    tag_6:\n      pop\n      tag_7\n      0x04\n      dup1\n      calldatasize\n      sub\n      dup2\n      add\n      swap1\n      tag_8\n      swap2\n      swap1\n      tag_9\n      jump\t// in\n    tag_8:\n      tag_10\n      jump\t// in\n    tag_7:\n      mload(0x40)\n      tag_11\n      swap2\n      swap1\n      tag_12\n      jump\t// in\n    tag_11:\n      mload(0x40)\n      dup1\n      swap2\n      sub\n      swap1\n      return\n        /* \"contracts/FundMe.sol\":1531:1802  function fund() public  payable {... */\n    tag_3:\n      tag_13\n      tag_14\n      jump\t// in\n    tag_13:\n      stop\n        /* \"contracts/FundMe.sol\":1439:1463  address[] public funders */\n    tag_4:\n      callvalue\n      dup1\n      iszero\n      tag_15\n      jumpi\n      0x00\n      dup1\n      revert\n    tag_15:\n      pop\n      tag_16\n      0x04\n      dup1\n      calldatasize\n      sub\n      dup2\n      add\n      swap1\n      tag_17\n      swap2\n      swap1\n      tag_18\n      jump\t// in\n    tag_17:\n      tag_19\n      jump\t// in\n    tag_16:\n      mload(0x40)\n      tag_20\n      swap2\n      swap1\n      tag_21\n      jump\t// in\n    tag_20:\n      mload(0x40)\n      dup1\n      swap2\n      sub\n      swap1\n      return\n        /* \"contracts/FundMe.sol\":1404:1433  uint256 public minUSD=50*1e18 */\n    tag_5:\n      callvalue\n      dup1\n      iszero\n      tag_22\n      jumpi\n      0x00\n      dup1\n      revert\n    tag_22:\n      pop\n      tag_23\n      tag_24\n      jump\t// in\n    tag_23:\n      mload(0x40)\n      tag_25\n      swap2\n      swap1\n      tag_12\n      jump\t// in\n    tag_25:\n      mload(0x40)\n      dup1\n      swap2\n      sub\n      swap1\n      return\n        /* \"contracts/FundMe.sol\":1469:1525  mapping (address=>uint256) public  addressToAmountFunded */\n    tag_10:\n      mstore(0x20, 0x02)\n      dup1\n      0x00\n      mstore\n      keccak256(0x00, 0x40)\n      0x00\n      swap2\n      pop\n      swap1\n      pop\n      sload\n      dup2\n      jump\t// out\n        /* \"contracts/FundMe.sol\":1531:1802  function fund() public  payable {... */\n    tag_14:\n        /* \"contracts/FundMe.sol\":1659:1665  minUSD */\n      sload(0x00)\n        /* \"contracts/FundMe.sol\":1627:1656  msg.value.getConversionRate() */\n      tag_27\n        /* \"contracts/FundMe.sol\":1627:1636  msg.value */\n      callvalue\n        /* \"contracts/FundMe.sol\":1627:1654  msg.value.getConversionRate */\n      tag_28\n        /* \"contracts/FundMe.sol\":1627:1656  msg.value.getConversionRate() */\n      jump\t// in\n    tag_27:\n        /* \"contracts/FundMe.sol\":1627:1665  msg.value.getConversionRate()>= minUSD */\n      lt\n      iszero\n        /* \"contracts/FundMe.sol\":1619:1694  require(msg.value.getConversionRate()>= minUSD,\"Try sending atleast 1 Eth\") */\n      tag_29\n      jumpi\n      mload(0x40)\n      0x08c379a000000000000000000000000000000000000000000000000000000000\n      dup2\n      mstore\n      0x04\n      add\n      tag_30\n      swap1\n      tag_31\n      jump\t// in\n    tag_30:\n      mload(0x40)\n      dup1\n      swap2\n      sub\n      swap1\n      revert\n    tag_29:\n        /* \"contracts/FundMe.sol\":1718:1725  funders */\n      0x01\n        /* \"contracts/FundMe.sol\":1731:1741  msg.sender */\n      caller\n        /* \"contracts/FundMe.sol\":1718:1742  funders.push(msg.sender) */\n      swap1\n      dup1\n      0x01\n      dup2\n      sload\n      add\n      dup1\n      dup3\n      sstore\n      dup1\n      swap2\n      pop\n      pop\n      0x01\n      swap1\n      sub\n      swap1\n      0x00\n      mstore\n      keccak256(0x00, 0x20)\n      add\n      0x00\n      swap1\n      swap2\n      swap1\n      swap2\n      swap1\n      swap2\n      0x0100\n      exp\n      dup2\n      sload\n      dup2\n      0xffffffffffffffffffffffffffffffffffffffff\n      mul\n      not\n      and\n      swap1\n      dup4\n      0xffffffffffffffffffffffffffffffffffffffff\n      and\n      mul\n      or\n      swap1\n      sstore\n      pop\n        /* \"contracts/FundMe.sol\":1786:1795  msg.value */\n      callvalue\n        /* \"contracts/FundMe.sol\":1752:1773  addressToAmountFunded */\n      0x02\n        /* \"contracts/FundMe.sol\":1752:1785  addressToAmountFunded[msg.sender] */\n      0x00\n        /* \"contracts/FundMe.sol\":1774:1784  msg.sender */\n      caller\n        /* \"contracts/FundMe.sol\":1752:1785  addressToAmountFunded[msg.sender] */\n      0xffffffffffffffffffffffffffffffffffffffff\n      and\n      0xffffffffffffffffffffffffffffffffffffffff\n      and\n      dup2\n      mstore\n      0x20\n      add\n      swap1\n      dup2\n      mstore\n      0x20\n      add\n      0x00\n      keccak256\n        /* \"contracts/FundMe.sol\":1752:1795  addressToAmountFunded[msg.sender]=msg.value */\n      dup2\n      swap1\n      sstore\n      pop\n        /* \"contracts/FundMe.sol\":1531:1802  function fund() public  payable {... */\n      jump\t// out\n        /* \"contracts/FundMe.sol\":1439:1463  address[] public funders */\n    tag_19:\n      0x01\n      dup2\n      dup2\n      sload\n      dup2\n      lt\n      tag_33\n      jumpi\n      0x00\n      dup1\n      revert\n    tag_33:\n      swap1\n      0x00\n      mstore\n      keccak256(0x00, 0x20)\n      add\n      0x00\n      swap2\n      pop\n      sload\n      swap1\n      0x0100\n      exp\n      swap1\n      div\n      0xffffffffffffffffffffffffffffffffffffffff\n      and\n      dup2\n      jump\t// out\n        /* \"contracts/FundMe.sol\":1404:1433  uint256 public minUSD=50*1e18 */\n    tag_24:\n      sload(0x00)\n      dup2\n      jump\t// out\n        /* \"contracts/PriceConverter.sol\":1192:1402  function getConversionRate(uint256 ethAmount) internal view returns(uint256) {... */\n    tag_28:\n        /* \"contracts/PriceConverter.sol\":1260:1267  uint256 */\n      0x00\n        /* \"contracts/PriceConverter.sol\":1279:1295  uint256 ethPrice */\n      dup1\n        /* \"contracts/PriceConverter.sol\":1296:1306  getPrice() */\n      tag_36\n        /* \"contracts/PriceConverter.sol\":1296:1304  getPrice */\n      tag_37\n        /* \"contracts/PriceConverter.sol\":1296:1306  getPrice() */\n      jump\t// in\n    tag_36:\n        /* \"contracts/PriceConverter.sol\":1279:1306  uint256 ethPrice=getPrice() */\n      swap1\n      pop\n        /* \"contracts/PriceConverter.sol\":1316:1338  uint256 ethAmountInUSD */\n      0x00\n        /* \"contracts/PriceConverter.sol\":1360:1364  1e18 */\n      0x0de0b6b3a7640000\n        /* \"contracts/PriceConverter.sol\":1349:1358  ethAmount */\n      dup5\n        /* \"contracts/PriceConverter.sol\":1340:1348  ethPrice */\n      dup4\n        /* \"contracts/PriceConverter.sol\":1340:1358  ethPrice*ethAmount */\n      tag_38\n      swap2\n      swap1\n      tag_39\n      jump\t// in\n    tag_38:\n        /* \"contracts/PriceConverter.sol\":1339:1364  (ethPrice*ethAmount)/1e18 */\n      tag_40\n      swap2\n      swap1\n      tag_41\n      jump\t// in\n    tag_40:\n        /* \"contracts/PriceConverter.sol\":1316:1364  uint256 ethAmountInUSD=(ethPrice*ethAmount)/1e18 */\n      swap1\n      pop\n        /* \"contracts/PriceConverter.sol\":1381:1395  ethAmountInUSD */\n      dup1\n        /* \"contracts/PriceConverter.sol\":1374:1395  return ethAmountInUSD */\n      swap3\n      pop\n      pop\n      pop\n        /* \"contracts/PriceConverter.sol\":1192:1402  function getConversionRate(uint256 ethAmount) internal view returns(uint256) {... */\n      swap2\n      swap1\n      pop\n      jump\t// out\n        /* \"contracts/PriceConverter.sol\":343:1030  function getPrice() internal  view returns(uint256){... */\n    tag_37:\n        /* \"contracts/PriceConverter.sol\":386:393  uint256 */\n      0x00\n        /* \"contracts/PriceConverter.sol\":479:510  AggregatorV3Interface priceFeed */\n      dup1\n        /* \"contracts/PriceConverter.sol\":533:575  0x694AA1769357215DE4FAC081bf1f309aDC325306 */\n      0x694aa1769357215de4fac081bf1f309adc325306\n        /* \"contracts/PriceConverter.sol\":479:576  AggregatorV3Interface priceFeed=AggregatorV3Interface(0x694AA1769357215DE4FAC081bf1f309aDC325306) */\n      swap1\n      pop\n        /* \"contracts/PriceConverter.sol\":588:600  int256 price */\n      0x00\n        /* \"contracts/PriceConverter.sol\":605:614  priceFeed */\n      dup2\n        /* \"contracts/PriceConverter.sol\":605:630  priceFeed.latestRoundData */\n      0xffffffffffffffffffffffffffffffffffffffff\n      and\n      0xfeaf968c\n        /* \"contracts/PriceConverter.sol\":605:632  priceFeed.latestRoundData() */\n      mload(0x40)\n      dup2\n      0xffffffff\n      and\n      0xe0\n      shl\n      dup2\n      mstore\n      0x04\n      add\n      0xa0\n      mload(0x40)\n      dup1\n      dup4\n      sub\n      dup2\n      dup7\n      gas\n      staticcall\n      iszero\n      dup1\n      iszero\n      tag_44\n      jumpi\n      returndatasize\n      0x00\n      dup1\n      returndatacopy\n      revert(0x00, returndatasize)\n    tag_44:\n      pop\n      pop\n      pop\n      pop\n      mload(0x40)\n      returndatasize\n      not(0x1f)\n      0x1f\n      dup3\n      add\n      and\n      dup3\n      add\n      dup1\n      0x40\n      mstore\n      pop\n      dup2\n      add\n      swap1\n      tag_45\n      swap2\n      swap1\n      tag_46\n      jump\t// in\n    tag_45:\n        /* \"contracts/PriceConverter.sol\":586:632  (,int256 price,,,)=priceFeed.latestRoundData() */\n      pop\n      pop\n      pop\n      swap2\n      pop\n      pop\n        /* \"contracts/PriceConverter.sol\":985:989  1e10 */\n      0x02540be400\n        /* \"contracts/PriceConverter.sol\":978:983  price */\n      dup2\n        /* \"contracts/PriceConverter.sol\":978:989  price *1e10 */\n      tag_47\n      swap2\n      swap1\n      tag_48\n      jump\t// in\n    tag_47:\n        /* \"contracts/PriceConverter.sol\":963:990  return uint256(price *1e10) */\n      swap3\n      pop\n      pop\n      pop\n        /* \"contracts/PriceConverter.sol\":343:1030  function getPrice() internal  view returns(uint256){... */\n      swap1\n      jump\t// out\n        /* \"#utility.yul\":88:205   */\n    tag_50:\n        /* \"#utility.yul\":197:198   */\n      0x00\n        /* \"#utility.yul\":194:195   */\n      dup1\n        /* \"#utility.yul\":187:199   */\n      revert\n        /* \"#utility.yul\":334:460   */\n    tag_52:\n        /* \"#utility.yul\":371:378   */\n      0x00\n        /* \"#utility.yul\":411:453   */\n      0xffffffffffffffffffffffffffffffffffffffff\n        /* \"#utility.yul\":404:409   */\n      dup3\n        /* \"#utility.yul\":400:454   */\n      and\n        /* \"#utility.yul\":389:454   */\n      swap1\n      pop\n        /* \"#utility.yul\":334:460   */\n      swap2\n      swap1\n      pop\n      jump\t// out\n        /* \"#utility.yul\":466:562   */\n    tag_53:\n        /* \"#utility.yul\":503:510   */\n      0x00\n        /* \"#utility.yul\":532:556   */\n      tag_79\n        /* \"#utility.yul\":550:555   */\n      dup3\n        /* \"#utility.yul\":532:556   */\n      tag_52\n      jump\t// in\n    tag_79:\n        /* \"#utility.yul\":521:556   */\n      swap1\n      pop\n        /* \"#utility.yul\":466:562   */\n      swap2\n      swap1\n      pop\n      jump\t// out\n        /* \"#utility.yul\":568:690   */\n    tag_54:\n        /* \"#utility.yul\":641:665   */\n      tag_81\n        /* \"#utility.yul\":659:664   */\n      dup2\n        /* \"#utility.yul\":641:665   */\n      tag_53\n      jump\t// in\n    tag_81:\n        /* \"#utility.yul\":634:639   */\n      dup2\n        /* \"#utility.yul\":631:666   */\n      eq\n        /* \"#utility.yul\":621:684   */\n      tag_82\n      jumpi\n        /* \"#utility.yul\":680:681   */\n      0x00\n        /* \"#utility.yul\":677:678   */\n      dup1\n        /* \"#utility.yul\":670:682   */\n      revert\n        /* \"#utility.yul\":621:684   */\n    tag_82:\n        /* \"#utility.yul\":568:690   */\n      pop\n      jump\t// out\n        /* \"#utility.yul\":696:835   */\n    tag_55:\n        /* \"#utility.yul\":742:747   */\n      0x00\n        /* \"#utility.yul\":780:786   */\n      dup2\n        /* \"#utility.yul\":767:787   */\n      calldataload\n        /* \"#utility.yul\":758:787   */\n      swap1\n      pop\n        /* \"#utility.yul\":796:829   */\n      tag_84\n        /* \"#utility.yul\":823:828   */\n      dup2\n        /* \"#utility.yul\":796:829   */\n      tag_54\n      jump\t// in\n    tag_84:\n        /* \"#utility.yul\":696:835   */\n      swap3\n      swap2\n      pop\n      pop\n      jump\t// out\n        /* \"#utility.yul\":841:1170   */\n    tag_9:\n        /* \"#utility.yul\":900:906   */\n      0x00\n        /* \"#utility.yul\":949:951   */\n      0x20\n        /* \"#utility.yul\":937:946   */\n      dup3\n        /* \"#utility.yul\":928:935   */\n      dup5\n        /* \"#utility.yul\":924:947   */\n      sub\n        /* \"#utility.yul\":920:952   */\n      slt\n        /* \"#utility.yul\":917:1036   */\n      iszero\n      tag_86\n      jumpi\n        /* \"#utility.yul\":955:1034   */\n      tag_87\n      tag_50\n      jump\t// in\n    tag_87:\n        /* \"#utility.yul\":917:1036   */\n    tag_86:\n        /* \"#utility.yul\":1075:1076   */\n      0x00\n        /* \"#utility.yul\":1100:1153   */\n      tag_88\n        /* \"#utility.yul\":1145:1152   */\n      dup5\n        /* \"#utility.yul\":1136:1142   */\n      dup3\n        /* \"#utility.yul\":1125:1134   */\n      dup6\n        /* \"#utility.yul\":1121:1143   */\n      add\n        /* \"#utility.yul\":1100:1153   */\n      tag_55\n      jump\t// in\n    tag_88:\n        /* \"#utility.yul\":1090:1153   */\n      swap2\n      pop\n        /* \"#utility.yul\":1046:1163   */\n      pop\n        /* \"#utility.yul\":841:1170   */\n      swap3\n      swap2\n      pop\n      pop\n      jump\t// out\n        /* \"#utility.yul\":1176:1253   */\n    tag_56:\n        /* \"#utility.yul\":1213:1220   */\n      0x00\n        /* \"#utility.yul\":1242:1247   */\n      dup2\n        /* \"#utility.yul\":1231:1247   */\n      swap1\n      pop\n        /* \"#utility.yul\":1176:1253   */\n      swap2\n      swap1\n      pop\n      jump\t// out\n        /* \"#utility.yul\":1259:1377   */\n    tag_57:\n        /* \"#utility.yul\":1346:1370   */\n      tag_91\n        /* \"#utility.yul\":1364:1369   */\n      dup2\n        /* \"#utility.yul\":1346:1370   */\n      tag_56\n      jump\t// in\n    tag_91:\n        /* \"#utility.yul\":1341:1344   */\n      dup3\n        /* \"#utility.yul\":1334:1371   */\n      mstore\n        /* \"#utility.yul\":1259:1377   */\n      pop\n      pop\n      jump\t// out\n        /* \"#utility.yul\":1383:1605   */\n    tag_12:\n        /* \"#utility.yul\":1476:1480   */\n      0x00\n        /* \"#utility.yul\":1514:1516   */\n      0x20\n        /* \"#utility.yul\":1503:1512   */\n      dup3\n        /* \"#utility.yul\":1499:1517   */\n      add\n        /* \"#utility.yul\":1491:1517   */\n      swap1\n      pop\n        /* \"#utility.yul\":1527:1598   */\n      tag_93\n        /* \"#utility.yul\":1595:1596   */\n      0x00\n        /* \"#utility.yul\":1584:1593   */\n      dup4\n        /* \"#utility.yul\":1580:1597   */\n      add\n        /* \"#utility.yul\":1571:1577   */\n      dup5\n        /* \"#utility.yul\":1527:1598   */\n      tag_57\n      jump\t// in\n    tag_93:\n        /* \"#utility.yul\":1383:1605   */\n      swap3\n      swap2\n      pop\n      pop\n      jump\t// out\n        /* \"#utility.yul\":1611:1733   */\n    tag_58:\n        /* \"#utility.yul\":1684:1708   */\n      tag_95\n        /* \"#utility.yul\":1702:1707   */\n      dup2\n        /* \"#utility.yul\":1684:1708   */\n      tag_56\n      jump\t// in\n    tag_95:\n        /* \"#utility.yul\":1677:1682   */\n      dup2\n        /* \"#utility.yul\":1674:1709   */\n      eq\n        /* \"#utility.yul\":1664:1727   */\n      tag_96\n      jumpi\n        /* \"#utility.yul\":1723:1724   */\n      0x00\n        /* \"#utility.yul\":1720:1721   */\n      dup1\n        /* \"#utility.yul\":1713:1725   */\n      revert\n        /* \"#utility.yul\":1664:1727   */\n    tag_96:\n        /* \"#utility.yul\":1611:1733   */\n      pop\n      jump\t// out\n        /* \"#utility.yul\":1739:1878   */\n    tag_59:\n        /* \"#utility.yul\":1785:1790   */\n      0x00\n        /* \"#utility.yul\":1823:1829   */\n      dup2\n        /* \"#utility.yul\":1810:1830   */\n      calldataload\n        /* \"#utility.yul\":1801:1830   */\n      swap1\n      pop\n        /* \"#utility.yul\":1839:1872   */\n      tag_98\n        /* \"#utility.yul\":1866:1871   */\n      dup2\n        /* \"#utility.yul\":1839:1872   */\n      tag_58\n      jump\t// in\n    tag_98:\n        /* \"#utility.yul\":1739:1878   */\n      swap3\n      swap2\n      pop\n      pop\n      jump\t// out\n        /* \"#utility.yul\":1884:2213   */\n    tag_18:\n        /* \"#utility.yul\":1943:1949   */\n      0x00\n        /* \"#utility.yul\":1992:1994   */\n      0x20\n        /* \"#utility.yul\":1980:1989   */\n      dup3\n        /* \"#utility.yul\":1971:1978   */\n      dup5\n        /* \"#utility.yul\":1967:1990   */\n      sub\n        /* \"#utility.yul\":1963:1995   */\n      slt\n        /* \"#utility.yul\":1960:2079   */\n      iszero\n      tag_100\n      jumpi\n        /* \"#utility.yul\":1998:2077   */\n      tag_101\n      tag_50\n      jump\t// in\n    tag_101:\n        /* \"#utility.yul\":1960:2079   */\n    tag_100:\n        /* \"#utility.yul\":2118:2119   */\n      0x00\n        /* \"#utility.yul\":2143:2196   */\n      tag_102\n        /* \"#utility.yul\":2188:2195   */\n      dup5\n        /* \"#utility.yul\":2179:2185   */\n      dup3\n        /* \"#utility.yul\":2168:2177   */\n      dup6\n        /* \"#utility.yul\":2164:2186   */\n      add\n        /* \"#utility.yul\":2143:2196   */\n      tag_59\n      jump\t// in\n    tag_102:\n        /* \"#utility.yul\":2133:2196   */\n      swap2\n      pop\n        /* \"#utility.yul\":2089:2206   */\n      pop\n        /* \"#utility.yul\":1884:2213   */\n      swap3\n      swap2\n      pop\n      pop\n      jump\t// out\n        /* \"#utility.yul\":2219:2337   */\n    tag_60:\n        /* \"#utility.yul\":2306:2330   */\n      tag_104\n        /* \"#utility.yul\":2324:2329   */\n      dup2\n        /* \"#utility.yul\":2306:2330   */\n      tag_53\n      jump\t// in\n    tag_104:\n        /* \"#utility.yul\":2301:2304   */\n      dup3\n        /* \"#utility.yul\":2294:2331   */\n      mstore\n        /* \"#utility.yul\":2219:2337   */\n      pop\n      pop\n      jump\t// out\n        /* \"#utility.yul\":2343:2565   */\n    tag_21:\n        /* \"#utility.yul\":2436:2440   */\n      0x00\n        /* \"#utility.yul\":2474:2476   */\n      0x20\n        /* \"#utility.yul\":2463:2472   */\n      dup3\n        /* \"#utility.yul\":2459:2477   */\n      add\n        /* \"#utility.yul\":2451:2477   */\n      swap1\n      pop\n        /* \"#utility.yul\":2487:2558   */\n      tag_106\n        /* \"#utility.yul\":2555:2556   */\n      0x00\n        /* \"#utility.yul\":2544:2553   */\n      dup4\n        /* \"#utility.yul\":2540:2557   */\n      add\n        /* \"#utility.yul\":2531:2537   */\n      dup5\n        /* \"#utility.yul\":2487:2558   */\n      tag_60\n      jump\t// in\n    tag_106:\n        /* \"#utility.yul\":2343:2565   */\n      swap3\n      swap2\n      pop\n      pop\n      jump\t// out\n        /* \"#utility.yul\":2571:2740   */\n    tag_61:\n        /* \"#utility.yul\":2655:2666   */\n      0x00\n        /* \"#utility.yul\":2689:2695   */\n      dup3\n        /* \"#utility.yul\":2684:2687   */\n      dup3\n        /* \"#utility.yul\":2677:2696   */\n      mstore\n        /* \"#utility.yul\":2729:2733   */\n      0x20\n        /* \"#utility.yul\":2724:2727   */\n      dup3\n        /* \"#utility.yul\":2720:2734   */\n      add\n        /* \"#utility.yul\":2705:2734   */\n      swap1\n      pop\n        /* \"#utility.yul\":2571:2740   */\n      swap3\n      swap2\n      pop\n      pop\n      jump\t// out\n        /* \"#utility.yul\":2746:2921   */\n    tag_62:\n        /* \"#utility.yul\":2886:2913   */\n      0x5472792073656e64696e672061746c6561737420312045746800000000000000\n        /* \"#utility.yul\":2882:2883   */\n      0x00\n        /* \"#utility.yul\":2874:2880   */\n      dup3\n        /* \"#utility.yul\":2870:2884   */\n      add\n        /* \"#utility.yul\":2863:2914   */\n      mstore\n        /* \"#utility.yul\":2746:2921   */\n      pop\n      jump\t// out\n        /* \"#utility.yul\":2927:3293   */\n    tag_63:\n        /* \"#utility.yul\":3069:3072   */\n      0x00\n        /* \"#utility.yul\":3090:3157   */\n      tag_110\n        /* \"#utility.yul\":3154:3156   */\n      0x19\n        /* \"#utility.yul\":3149:3152   */\n      dup4\n        /* \"#utility.yul\":3090:3157   */\n      tag_61\n      jump\t// in\n    tag_110:\n        /* \"#utility.yul\":3083:3157   */\n      swap2\n      pop\n        /* \"#utility.yul\":3166:3259   */\n      tag_111\n        /* \"#utility.yul\":3255:3258   */\n      dup3\n        /* \"#utility.yul\":3166:3259   */\n      tag_62\n      jump\t// in\n    tag_111:\n        /* \"#utility.yul\":3284:3286   */\n      0x20\n        /* \"#utility.yul\":3279:3282   */\n      dup3\n        /* \"#utility.yul\":3275:3287   */\n      add\n        /* \"#utility.yul\":3268:3287   */\n      swap1\n      pop\n        /* \"#utility.yul\":2927:3293   */\n      swap2\n      swap1\n      pop\n      jump\t// out\n        /* \"#utility.yul\":3299:3718   */\n    tag_31:\n        /* \"#utility.yul\":3465:3469   */\n      0x00\n        /* \"#utility.yul\":3503:3505   */\n      0x20\n        /* \"#utility.yul\":3492:3501   */\n      dup3\n        /* \"#utility.yul\":3488:3506   */\n      add\n        /* \"#utility.yul\":3480:3506   */\n      swap1\n      pop\n        /* \"#utility.yul\":3552:3561   */\n      dup2\n        /* \"#utility.yul\":3546:3550   */\n      dup2\n        /* \"#utility.yul\":3542:3562   */\n      sub\n        /* \"#utility.yul\":3538:3539   */\n      0x00\n        /* \"#utility.yul\":3527:3536   */\n      dup4\n        /* \"#utility.yul\":3523:3540   */\n      add\n        /* \"#utility.yul\":3516:3563   */\n      mstore\n        /* \"#utility.yul\":3580:3711   */\n      tag_113\n        /* \"#utility.yul\":3706:3710   */\n      dup2\n        /* \"#utility.yul\":3580:3711   */\n      tag_63\n      jump\t// in\n    tag_113:\n        /* \"#utility.yul\":3572:3711   */\n      swap1\n      pop\n        /* \"#utility.yul\":3299:3718   */\n      swap2\n      swap1\n      pop\n      jump\t// out\n        /* \"#utility.yul\":3724:3904   */\n    tag_64:\n        /* \"#utility.yul\":3772:3849   */\n      0x4e487b7100000000000000000000000000000000000000000000000000000000\n        /* \"#utility.yul\":3769:3770   */\n      0x00\n        /* \"#utility.yul\":3762:3850   */\n      mstore\n        /* \"#utility.yul\":3869:3873   */\n      0x11\n        /* \"#utility.yul\":3866:3867   */\n      0x04\n        /* \"#utility.yul\":3859:3874   */\n      mstore\n        /* \"#utility.yul\":3893:3897   */\n      0x24\n        /* \"#utility.yul\":3890:3891   */\n      0x00\n        /* \"#utility.yul\":3883:3898   */\n      revert\n        /* \"#utility.yul\":3910:4320   */\n    tag_39:\n        /* \"#utility.yul\":3950:3957   */\n      0x00\n        /* \"#utility.yul\":3973:3993   */\n      tag_116\n        /* \"#utility.yul\":3991:3992   */\n      dup3\n        /* \"#utility.yul\":3973:3993   */\n      tag_56\n      jump\t// in\n    tag_116:\n        /* \"#utility.yul\":3968:3993   */\n      swap2\n      pop\n        /* \"#utility.yul\":4007:4027   */\n      tag_117\n        /* \"#utility.yul\":4025:4026   */\n      dup4\n        /* \"#utility.yul\":4007:4027   */\n      tag_56\n      jump\t// in\n    tag_117:\n        /* \"#utility.yul\":4002:4027   */\n      swap3\n      pop\n        /* \"#utility.yul\":4062:4063   */\n      dup3\n        /* \"#utility.yul\":4059:4060   */\n      dup3\n        /* \"#utility.yul\":4055:4064   */\n      mul\n        /* \"#utility.yul\":4084:4114   */\n      tag_118\n        /* \"#utility.yul\":4102:4113   */\n      dup2\n        /* \"#utility.yul\":4084:4114   */\n      tag_56\n      jump\t// in\n    tag_118:\n        /* \"#utility.yul\":4073:4114   */\n      swap2\n      pop\n        /* \"#utility.yul\":4263:4264   */\n      dup3\n        /* \"#utility.yul\":4254:4261   */\n      dup3\n        /* \"#utility.yul\":4250:4265   */\n      div\n        /* \"#utility.yul\":4247:4248   */\n      dup5\n        /* \"#utility.yul\":4244:4266   */\n      eq\n        /* \"#utility.yul\":4224:4225   */\n      dup4\n        /* \"#utility.yul\":4217:4226   */\n      iszero\n        /* \"#utility.yul\":4197:4280   */\n      or\n        /* \"#utility.yul\":4174:4313   */\n      tag_119\n      jumpi\n        /* \"#utility.yul\":4293:4311   */\n      tag_120\n      tag_64\n      jump\t// in\n    tag_120:\n        /* \"#utility.yul\":4174:4313   */\n    tag_119:\n        /* \"#utility.yul\":3958:4320   */\n      pop\n        /* \"#utility.yul\":3910:4320   */\n      swap3\n      swap2\n      pop\n      pop\n      jump\t// out\n        /* \"#utility.yul\":4326:4506   */\n    tag_65:\n        /* \"#utility.yul\":4374:4451   */\n      0x4e487b7100000000000000000000000000000000000000000000000000000000\n        /* \"#utility.yul\":4371:4372   */\n      0x00\n        /* \"#utility.yul\":4364:4452   */\n      mstore\n        /* \"#utility.yul\":4471:4475   */\n      0x12\n        /* \"#utility.yul\":4468:4469   */\n      0x04\n        /* \"#utility.yul\":4461:4476   */\n      mstore\n        /* \"#utility.yul\":4495:4499   */\n      0x24\n        /* \"#utility.yul\":4492:4493   */\n      0x00\n        /* \"#utility.yul\":4485:4500   */\n      revert\n        /* \"#utility.yul\":4512:4697   */\n    tag_41:\n        /* \"#utility.yul\":4552:4553   */\n      0x00\n        /* \"#utility.yul\":4569:4589   */\n      tag_123\n        /* \"#utility.yul\":4587:4588   */\n      dup3\n        /* \"#utility.yul\":4569:4589   */\n      tag_56\n      jump\t// in\n    tag_123:\n        /* \"#utility.yul\":4564:4589   */\n      swap2\n      pop\n        /* \"#utility.yul\":4603:4623   */\n      tag_124\n        /* \"#utility.yul\":4621:4622   */\n      dup4\n        /* \"#utility.yul\":4603:4623   */\n      tag_56\n      jump\t// in\n    tag_124:\n        /* \"#utility.yul\":4598:4623   */\n      swap3\n      pop\n        /* \"#utility.yul\":4642:4643   */\n      dup3\n        /* \"#utility.yul\":4632:4667   */\n      tag_125\n      jumpi\n        /* \"#utility.yul\":4647:4665   */\n      tag_126\n      tag_65\n      jump\t// in\n    tag_126:\n        /* \"#utility.yul\":4632:4667   */\n    tag_125:\n        /* \"#utility.yul\":4689:4690   */\n      dup3\n        /* \"#utility.yul\":4686:4687   */\n      dup3\n        /* \"#utility.yul\":4682:4691   */\n      div\n        /* \"#utility.yul\":4677:4691   */\n      swap1\n      pop\n        /* \"#utility.yul\":4512:4697   */\n      swap3\n      swap2\n      pop\n      pop\n      jump\t// out\n        /* \"#utility.yul\":4703:4808   */\n    tag_66:\n        /* \"#utility.yul\":4739:4746   */\n      0x00\n        /* \"#utility.yul\":4779:4801   */\n      0xffffffffffffffffffff\n        /* \"#utility.yul\":4772:4777   */\n      dup3\n        /* \"#utility.yul\":4768:4802   */\n      and\n        /* \"#utility.yul\":4757:4802   */\n      swap1\n      pop\n        /* \"#utility.yul\":4703:4808   */\n      swap2\n      swap1\n      pop\n      jump\t// out\n        /* \"#utility.yul\":4814:4934   */\n    tag_67:\n        /* \"#utility.yul\":4886:4909   */\n      tag_129\n        /* \"#utility.yul\":4903:4908   */\n      dup2\n        /* \"#utility.yul\":4886:4909   */\n      tag_66\n      jump\t// in\n    tag_129:\n        /* \"#utility.yul\":4879:4884   */\n      dup2\n        /* \"#utility.yul\":4876:4910   */\n      eq\n        /* \"#utility.yul\":4866:4928   */\n      tag_130\n      jumpi\n        /* \"#utility.yul\":4924:4925   */\n      0x00\n        /* \"#utility.yul\":4921:4922   */\n      dup1\n        /* \"#utility.yul\":4914:4926   */\n      revert\n        /* \"#utility.yul\":4866:4928   */\n    tag_130:\n        /* \"#utility.yul\":4814:4934   */\n      pop\n      jump\t// out\n        /* \"#utility.yul\":4940:5081   */\n    tag_68:\n        /* \"#utility.yul\":4996:5001   */\n      0x00\n        /* \"#utility.yul\":5027:5033   */\n      dup2\n        /* \"#utility.yul\":5021:5034   */\n      mload\n        /* \"#utility.yul\":5012:5034   */\n      swap1\n      pop\n        /* \"#utility.yul\":5043:5075   */\n      tag_132\n        /* \"#utility.yul\":5069:5074   */\n      dup2\n        /* \"#utility.yul\":5043:5075   */\n      tag_67\n      jump\t// in\n    tag_132:\n        /* \"#utility.yul\":4940:5081   */\n      swap3\n      swap2\n      pop\n      pop\n      jump\t// out\n        /* \"#utility.yul\":5087:5163   */\n    tag_69:\n        /* \"#utility.yul\":5123:5130   */\n      0x00\n        /* \"#utility.yul\":5152:5157   */\n      dup2\n        /* \"#utility.yul\":5141:5157   */\n      swap1\n      pop\n        /* \"#utility.yul\":5087:5163   */\n      swap2\n      swap1\n      pop\n      jump\t// out\n        /* \"#utility.yul\":5169:5289   */\n    tag_70:\n        /* \"#utility.yul\":5241:5264   */\n      tag_135\n        /* \"#utility.yul\":5258:5263   */\n      dup2\n        /* \"#utility.yul\":5241:5264   */\n      tag_69\n      jump\t// in\n    tag_135:\n        /* \"#utility.yul\":5234:5239   */\n      dup2\n        /* \"#utility.yul\":5231:5265   */\n      eq\n        /* \"#utility.yul\":5221:5283   */\n      tag_136\n      jumpi\n        /* \"#utility.yul\":5279:5280   */\n      0x00\n        /* \"#utility.yul\":5276:5277   */\n      dup1\n        /* \"#utility.yul\":5269:5281   */\n      revert\n        /* \"#utility.yul\":5221:5283   */\n    tag_136:\n        /* \"#utility.yul\":5169:5289   */\n      pop\n      jump\t// out\n        /* \"#utility.yul\":5295:5436   */\n    tag_71:\n        /* \"#utility.yul\":5351:5356   */\n      0x00\n        /* \"#utility.yul\":5382:5388   */\n      dup2\n        /* \"#utility.yul\":5376:5389   */\n      mload\n        /* \"#utility.yul\":5367:5389   */\n      swap1\n      pop\n        /* \"#utility.yul\":5398:5430   */\n      tag_138\n        /* \"#utility.yul\":5424:5429   */\n      dup2\n        /* \"#utility.yul\":5398:5430   */\n      tag_70\n      jump\t// in\n    tag_138:\n        /* \"#utility.yul\":5295:5436   */\n      swap3\n      swap2\n      pop\n      pop\n      jump\t// out\n        /* \"#utility.yul\":5442:5585   */\n    tag_72:\n        /* \"#utility.yul\":5499:5504   */\n      0x00\n        /* \"#utility.yul\":5530:5536   */\n      dup2\n        /* \"#utility.yul\":5524:5537   */\n      mload\n        /* \"#utility.yul\":5515:5537   */\n      swap1\n      pop\n        /* \"#utility.yul\":5546:5579   */\n      tag_140\n        /* \"#utility.yul\":5573:5578   */\n      dup2\n        /* \"#utility.yul\":5546:5579   */\n      tag_58\n      jump\t// in\n    tag_140:\n        /* \"#utility.yul\":5442:5585   */\n      swap3\n      swap2\n      pop\n      pop\n      jump\t// out\n        /* \"#utility.yul\":5591:6562   */\n    tag_46:\n        /* \"#utility.yul\":5694:5700   */\n      0x00\n        /* \"#utility.yul\":5702:5708   */\n      dup1\n        /* \"#utility.yul\":5710:5716   */\n      0x00\n        /* \"#utility.yul\":5718:5724   */\n      dup1\n        /* \"#utility.yul\":5726:5732   */\n      0x00\n        /* \"#utility.yul\":5775:5778   */\n      0xa0\n        /* \"#utility.yul\":5763:5772   */\n      dup7\n        /* \"#utility.yul\":5754:5761   */\n      dup9\n        /* \"#utility.yul\":5750:5773   */\n      sub\n        /* \"#utility.yul\":5746:5779   */\n      slt\n        /* \"#utility.yul\":5743:5863   */\n      iszero\n      tag_142\n      jumpi\n        /* \"#utility.yul\":5782:5861   */\n      tag_143\n      tag_50\n      jump\t// in\n    tag_143:\n        /* \"#utility.yul\":5743:5863   */\n    tag_142:\n        /* \"#utility.yul\":5902:5903   */\n      0x00\n        /* \"#utility.yul\":5927:5990   */\n      tag_144\n        /* \"#utility.yul\":5982:5989   */\n      dup9\n        /* \"#utility.yul\":5973:5979   */\n      dup3\n        /* \"#utility.yul\":5962:5971   */\n      dup10\n        /* \"#utility.yul\":5958:5980   */\n      add\n        /* \"#utility.yul\":5927:5990   */\n      tag_68\n      jump\t// in\n    tag_144:\n        /* \"#utility.yul\":5917:5990   */\n      swap6\n      pop\n        /* \"#utility.yul\":5873:6000   */\n      pop\n        /* \"#utility.yul\":6039:6041   */\n      0x20\n        /* \"#utility.yul\":6065:6128   */\n      tag_145\n        /* \"#utility.yul\":6120:6127   */\n      dup9\n        /* \"#utility.yul\":6111:6117   */\n      dup3\n        /* \"#utility.yul\":6100:6109   */\n      dup10\n        /* \"#utility.yul\":6096:6118   */\n      add\n        /* \"#utility.yul\":6065:6128   */\n      tag_71\n      jump\t// in\n    tag_145:\n        /* \"#utility.yul\":6055:6128   */\n      swap5\n      pop\n        /* \"#utility.yul\":6010:6138   */\n      pop\n        /* \"#utility.yul\":6177:6179   */\n      0x40\n        /* \"#utility.yul\":6203:6267   */\n      tag_146\n        /* \"#utility.yul\":6259:6266   */\n      dup9\n        /* \"#utility.yul\":6250:6256   */\n      dup3\n        /* \"#utility.yul\":6239:6248   */\n      dup10\n        /* \"#utility.yul\":6235:6257   */\n      add\n        /* \"#utility.yul\":6203:6267   */\n      tag_72\n      jump\t// in\n    tag_146:\n        /* \"#utility.yul\":6193:6267   */\n      swap4\n      pop\n        /* \"#utility.yul\":6148:6277   */\n      pop\n        /* \"#utility.yul\":6316:6318   */\n      0x60\n        /* \"#utility.yul\":6342:6406   */\n      tag_147\n        /* \"#utility.yul\":6398:6405   */\n      dup9\n        /* \"#utility.yul\":6389:6395   */\n      dup3\n        /* \"#utility.yul\":6378:6387   */\n      dup10\n        /* \"#utility.yul\":6374:6396   */\n      add\n        /* \"#utility.yul\":6342:6406   */\n      tag_72\n      jump\t// in\n    tag_147:\n        /* \"#utility.yul\":6332:6406   */\n      swap3\n      pop\n        /* \"#utility.yul\":6287:6416   */\n      pop\n        /* \"#utility.yul\":6455:6458   */\n      0x80\n        /* \"#utility.yul\":6482:6545   */\n      tag_148\n        /* \"#utility.yul\":6537:6544   */\n      dup9\n        /* \"#utility.yul\":6528:6534   */\n      dup3\n        /* \"#utility.yul\":6517:6526   */\n      dup10\n        /* \"#utility.yul\":6513:6535   */\n      add\n        /* \"#utility.yul\":6482:6545   */\n      tag_68\n      jump\t// in\n    tag_148:\n        /* \"#utility.yul\":6472:6545   */\n      swap2\n      pop\n        /* \"#utility.yul\":6426:6555   */\n      pop\n        /* \"#utility.yul\":5591:6562   */\n      swap3\n      swap6\n      pop\n      swap3\n      swap6\n      swap1\n      swap4\n      pop\n      jump\t// out\n        /* \"#utility.yul\":6568:7124   */\n    tag_48:\n        /* \"#utility.yul\":6607:6614   */\n      0x00\n        /* \"#utility.yul\":6630:6649   */\n      tag_150\n        /* \"#utility.yul\":6647:6648   */\n      dup3\n        /* \"#utility.yul\":6630:6649   */\n      tag_69\n      jump\t// in\n    tag_150:\n        /* \"#utility.yul\":6625:6649   */\n      swap2\n      pop\n        /* \"#utility.yul\":6663:6682   */\n      tag_151\n        /* \"#utility.yul\":6680:6681   */\n      dup4\n        /* \"#utility.yul\":6663:6682   */\n      tag_69\n      jump\t// in\n    tag_151:\n        /* \"#utility.yul\":6658:6682   */\n      swap3\n      pop\n        /* \"#utility.yul\":6717:6718   */\n      dup3\n        /* \"#utility.yul\":6714:6715   */\n      dup3\n        /* \"#utility.yul\":6710:6719   */\n      mul\n        /* \"#utility.yul\":6739:6768   */\n      tag_152\n        /* \"#utility.yul\":6756:6767   */\n      dup2\n        /* \"#utility.yul\":6739:6768   */\n      tag_69\n      jump\t// in\n    tag_152:\n        /* \"#utility.yul\":6728:6768   */\n      swap2\n      pop\n        /* \"#utility.yul\":6826:6892   */\n      0x8000000000000000000000000000000000000000000000000000000000000000\n        /* \"#utility.yul\":6823:6824   */\n      dup5\n        /* \"#utility.yul\":6820:6893   */\n      eq\n        /* \"#utility.yul\":6816:6817   */\n      0x00\n        /* \"#utility.yul\":6813:6814   */\n      dup5\n        /* \"#utility.yul\":6809:6818   */\n      slt\n        /* \"#utility.yul\":6805:6894   */\n      and\n        /* \"#utility.yul\":6802:6917   */\n      iszero\n      tag_153\n      jumpi\n        /* \"#utility.yul\":6897:6915   */\n      tag_154\n      tag_64\n      jump\t// in\n    tag_154:\n        /* \"#utility.yul\":6802:6917   */\n    tag_153:\n        /* \"#utility.yul\":7067:7068   */\n      dup3\n        /* \"#utility.yul\":7058:7065   */\n      dup3\n        /* \"#utility.yul\":7053:7069   */\n      sdiv\n        /* \"#utility.yul\":7050:7051   */\n      dup5\n        /* \"#utility.yul\":7047:7070   */\n      eq\n        /* \"#utility.yul\":7027:7028   */\n      dup4\n        /* \"#utility.yul\":7020:7029   */\n      iszero\n        /* \"#utility.yul\":7000:7084   */\n      or\n        /* \"#utility.yul\":6977:7117   */\n      tag_155\n      jumpi\n        /* \"#utility.yul\":7097:7115   */\n      tag_156\n      tag_64\n      jump\t// in\n    tag_156:\n        /* \"#utility.yul\":6977:7117   */\n    tag_155:\n        /* \"#utility.yul\":6615:7124   */\n      pop\n        /* \"#utility.yul\":6568:7124   */\n      swap3\n      swap2\n      pop\n      pop\n      jump\t// out\n\n    auxdata: 0xa26469706673582212204c42cf63cf9b70f3a197e645d2580f0ab7ae236ec8cfc4703e7d7f18b82fe39264736f6c634300081a0033\n}\n",
				"bytecode": {
					"linkReferences": {},
					"object": "60806040526802b5e3af16b18800005f55348015601a575f80fd5b50610733806100285f395ff3fe60806040526004361061003e575f3560e01c80633e47d6f314610042578063b60d42881461007e578063dc0d3dff14610088578063dc992aa0146100c4575b5f80fd5b34801561004d575f80fd5b506100686004803603810190610063919061036e565b6100ee565b60405161007591906103b1565b60405180910390f35b610086610103565b005b348015610093575f80fd5b506100ae60048036038101906100a991906103f4565b6101f3565b6040516100bb919061042e565b60405180910390f35b3480156100cf575f80fd5b506100d861022e565b6040516100e591906103b1565b60405180910390f35b6002602052805f5260405f205f915090505481565b5f5461010e34610233565b101561014f576040517f08c379a0000000000000000000000000000000000000000000000000000000008152600401610146906104a1565b60405180910390fd5b600133908060018154018082558091505060019003905f5260205f20015f9091909190916101000a81548173ffffffffffffffffffffffffffffffffffffffff021916908373ffffffffffffffffffffffffffffffffffffffff1602179055503460025f3373ffffffffffffffffffffffffffffffffffffffff1673ffffffffffffffffffffffffffffffffffffffff1681526020019081526020015f2081905550565b60018181548110610202575f80fd5b905f5260205f20015f915054906101000a900473ffffffffffffffffffffffffffffffffffffffff1681565b5f5481565b5f8061023d61026b565b90505f670de0b6b3a7640000848361025591906104ec565b61025f919061055a565b90508092505050919050565b5f8073694aa1769357215de4fac081bf1f309adc32530690505f8173ffffffffffffffffffffffffffffffffffffffff1663feaf968c6040518163ffffffff1660e01b815260040160a060405180830381865afa1580156102ce573d5f803e3d5ffd5b505050506040513d601f19601f820116820180604052508101906102f29190610610565b5050509150506402540be400816103099190610687565b9250505090565b5f80fd5b5f73ffffffffffffffffffffffffffffffffffffffff82169050919050565b5f61033d82610314565b9050919050565b61034d81610333565b8114610357575f80fd5b50565b5f8135905061036881610344565b92915050565b5f6020828403121561038357610382610310565b5b5f6103908482850161035a565b91505092915050565b5f819050919050565b6103ab81610399565b82525050565b5f6020820190506103c45f8301846103a2565b92915050565b6103d381610399565b81146103dd575f80fd5b50565b5f813590506103ee816103ca565b92915050565b5f6020828403121561040957610408610310565b5b5f610416848285016103e0565b91505092915050565b61042881610333565b82525050565b5f6020820190506104415f83018461041f565b92915050565b5f82825260208201905092915050565b7f5472792073656e64696e672061746c65617374203120457468000000000000005f82015250565b5f61048b601983610447565b915061049682610457565b602082019050919050565b5f6020820190508181035f8301526104b88161047f565b9050919050565b7f4e487b71000000000000000000000000000000000000000000000000000000005f52601160045260245ffd5b5f6104f682610399565b915061050183610399565b925082820261050f81610399565b91508282048414831517610526576105256104bf565b5b5092915050565b7f4e487b71000000000000000000000000000000000000000000000000000000005f52601260045260245ffd5b5f61056482610399565b915061056f83610399565b92508261057f5761057e61052d565b5b828204905092915050565b5f69ffffffffffffffffffff82169050919050565b6105a88161058a565b81146105b2575f80fd5b50565b5f815190506105c38161059f565b92915050565b5f819050919050565b6105db816105c9565b81146105e5575f80fd5b50565b5f815190506105f6816105d2565b92915050565b5f8151905061060a816103ca565b92915050565b5f805f805f60a0868803121561062957610628610310565b5b5f610636888289016105b5565b9550506020610647888289016105e8565b9450506040610658888289016105fc565b9350506060610669888289016105fc565b925050608061067a888289016105b5565b9150509295509295909350565b5f610691826105c9565b915061069c836105c9565b92508282026106aa816105c9565b91507f800000000000000000000000000000000000000000000000000000000000000084145f841216156106e1576106e06104bf565b5b82820584148315176106f6576106f56104bf565b5b509291505056fea26469706673582212204c42cf63cf9b70f3a197e645d2580f0ab7ae236ec8cfc4703e7d7f18b82fe39264736f6c634300081a0033",
					"opcodes": "PUSH1 0x80 PUSH1 0x40 MSTORE PUSH9 0x2B5E3AF16B1880000 PUSH0 SSTORE CALLVALUE DUP1 ISZERO PUSH1 0x1A JUMPI PUSH0 DUP1 REVERT JUMPDEST POP PUSH2 0x733 DUP1 PUSH2 0x28 PUSH0 CODECOPY PUSH0 RETURN INVALID PUSH1 0x80 PUSH1 0x40 MSTORE PUSH1 0x4 CALLDATASIZE LT PUSH2 0x3E JUMPI PUSH0 CALLDATALOAD PUSH1 0xE0 SHR DUP1 PUSH4 0x3E47D6F3 EQ PUSH2 0x42 JUMPI DUP1 PUSH4 0xB60D4288 EQ PUSH2 0x7E JUMPI DUP1 PUSH4 0xDC0D3DFF EQ PUSH2 0x88 JUMPI DUP1 PUSH4 0xDC992AA0 EQ PUSH2 0xC4 JUMPI JUMPDEST PUSH0 DUP1 REVERT JUMPDEST CALLVALUE DUP1 ISZERO PUSH2 0x4D JUMPI PUSH0 DUP1 REVERT JUMPDEST POP PUSH2 0x68 PUSH1 0x4 DUP1 CALLDATASIZE SUB DUP2 ADD SWAP1 PUSH2 0x63 SWAP2 SWAP1 PUSH2 0x36E JUMP JUMPDEST PUSH2 0xEE JUMP JUMPDEST PUSH1 0x40 MLOAD PUSH2 0x75 SWAP2 SWAP1 PUSH2 0x3B1 JUMP JUMPDEST PUSH1 0x40 MLOAD DUP1 SWAP2 SUB SWAP1 RETURN JUMPDEST PUSH2 0x86 PUSH2 0x103 JUMP JUMPDEST STOP JUMPDEST CALLVALUE DUP1 ISZERO PUSH2 0x93 JUMPI PUSH0 DUP1 REVERT JUMPDEST POP PUSH2 0xAE PUSH1 0x4 DUP1 CALLDATASIZE SUB DUP2 ADD SWAP1 PUSH2 0xA9 SWAP2 SWAP1 PUSH2 0x3F4 JUMP JUMPDEST PUSH2 0x1F3 JUMP JUMPDEST PUSH1 0x40 MLOAD PUSH2 0xBB SWAP2 SWAP1 PUSH2 0x42E JUMP JUMPDEST PUSH1 0x40 MLOAD DUP1 SWAP2 SUB SWAP1 RETURN JUMPDEST CALLVALUE DUP1 ISZERO PUSH2 0xCF JUMPI PUSH0 DUP1 REVERT JUMPDEST POP PUSH2 0xD8 PUSH2 0x22E JUMP JUMPDEST PUSH1 0x40 MLOAD PUSH2 0xE5 SWAP2 SWAP1 PUSH2 0x3B1 JUMP JUMPDEST PUSH1 0x40 MLOAD DUP1 SWAP2 SUB SWAP1 RETURN JUMPDEST PUSH1 0x2 PUSH1 0x20 MSTORE DUP1 PUSH0 MSTORE PUSH1 0x40 PUSH0 KECCAK256 PUSH0 SWAP2 POP SWAP1 POP SLOAD DUP2 JUMP JUMPDEST PUSH0 SLOAD PUSH2 0x10E CALLVALUE PUSH2 0x233 JUMP JUMPDEST LT ISZERO PUSH2 0x14F JUMPI PUSH1 0x40 MLOAD PUSH32 0x8C379A000000000000000000000000000000000000000000000000000000000 DUP2 MSTORE PUSH1 0x4 ADD PUSH2 0x146 SWAP1 PUSH2 0x4A1 JUMP JUMPDEST PUSH1 0x40 MLOAD DUP1 SWAP2 SUB SWAP1 REVERT JUMPDEST PUSH1 0x1 CALLER SWAP1 DUP1 PUSH1 0x1 DUP2 SLOAD ADD DUP1 DUP3 SSTORE DUP1 SWAP2 POP POP PUSH1 0x1 SWAP1 SUB SWAP1 PUSH0 MSTORE PUSH1 0x20 PUSH0 KECCAK256 ADD PUSH0 SWAP1 SWAP2 SWAP1 SWAP2 SWAP1 SWAP2 PUSH2 0x100 EXP DUP2 SLOAD DUP2 PUSH20 0xFFFFFFFFFFFFFFFFFFFFFFFFFFFFFFFFFFFFFFFF MUL NOT AND SWAP1 DUP4 PUSH20 0xFFFFFFFFFFFFFFFFFFFFFFFFFFFFFFFFFFFFFFFF AND MUL OR SWAP1 SSTORE POP CALLVALUE PUSH1 0x2 PUSH0 CALLER PUSH20 0xFFFFFFFFFFFFFFFFFFFFFFFFFFFFFFFFFFFFFFFF AND PUSH20 0xFFFFFFFFFFFFFFFFFFFFFFFFFFFFFFFFFFFFFFFF AND DUP2 MSTORE PUSH1 0x20 ADD SWAP1 DUP2 MSTORE PUSH1 0x20 ADD PUSH0 KECCAK256 DUP2 SWAP1 SSTORE POP JUMP JUMPDEST PUSH1 0x1 DUP2 DUP2 SLOAD DUP2 LT PUSH2 0x202 JUMPI PUSH0 DUP1 REVERT JUMPDEST SWAP1 PUSH0 MSTORE PUSH1 0x20 PUSH0 KECCAK256 ADD PUSH0 SWAP2 POP SLOAD SWAP1 PUSH2 0x100 EXP SWAP1 DIV PUSH20 0xFFFFFFFFFFFFFFFFFFFFFFFFFFFFFFFFFFFFFFFF AND DUP2 JUMP JUMPDEST PUSH0 SLOAD DUP2 JUMP JUMPDEST PUSH0 DUP1 PUSH2 0x23D PUSH2 0x26B JUMP JUMPDEST SWAP1 POP PUSH0 PUSH8 0xDE0B6B3A7640000 DUP5 DUP4 PUSH2 0x255 SWAP2 SWAP1 PUSH2 0x4EC JUMP JUMPDEST PUSH2 0x25F SWAP2 SWAP1 PUSH2 0x55A JUMP JUMPDEST SWAP1 POP DUP1 SWAP3 POP POP POP SWAP2 SWAP1 POP JUMP JUMPDEST PUSH0 DUP1 PUSH20 0x694AA1769357215DE4FAC081BF1F309ADC325306 SWAP1 POP PUSH0 DUP2 PUSH20 0xFFFFFFFFFFFFFFFFFFFFFFFFFFFFFFFFFFFFFFFF AND PUSH4 0xFEAF968C PUSH1 0x40 MLOAD DUP2 PUSH4 0xFFFFFFFF AND PUSH1 0xE0 SHL DUP2 MSTORE PUSH1 0x4 ADD PUSH1 0xA0 PUSH1 0x40 MLOAD DUP1 DUP4 SUB DUP2 DUP7 GAS STATICCALL ISZERO DUP1 ISZERO PUSH2 0x2CE JUMPI RETURNDATASIZE PUSH0 DUP1 RETURNDATACOPY RETURNDATASIZE PUSH0 REVERT JUMPDEST POP POP POP POP PUSH1 0x40 MLOAD RETURNDATASIZE PUSH1 0x1F NOT PUSH1 0x1F DUP3 ADD AND DUP3 ADD DUP1 PUSH1 0x40 MSTORE POP DUP2 ADD SWAP1 PUSH2 0x2F2 SWAP2 SWAP1 PUSH2 0x610 JUMP JUMPDEST POP POP POP SWAP2 POP POP PUSH5 0x2540BE400 DUP2 PUSH2 0x309 SWAP2 SWAP1 PUSH2 0x687 JUMP JUMPDEST SWAP3 POP POP POP SWAP1 JUMP JUMPDEST PUSH0 DUP1 REVERT JUMPDEST PUSH0 PUSH20 0xFFFFFFFFFFFFFFFFFFFFFFFFFFFFFFFFFFFFFFFF DUP3 AND SWAP1 POP SWAP2 SWAP1 POP JUMP JUMPDEST PUSH0 PUSH2 0x33D DUP3 PUSH2 0x314 JUMP JUMPDEST SWAP1 POP SWAP2 SWAP1 POP JUMP JUMPDEST PUSH2 0x34D DUP2 PUSH2 0x333 JUMP JUMPDEST DUP2 EQ PUSH2 0x357 JUMPI PUSH0 DUP1 REVERT JUMPDEST POP JUMP JUMPDEST PUSH0 DUP2 CALLDATALOAD SWAP1 POP PUSH2 0x368 DUP2 PUSH2 0x344 JUMP JUMPDEST SWAP3 SWAP2 POP POP JUMP JUMPDEST PUSH0 PUSH1 0x20 DUP3 DUP5 SUB SLT ISZERO PUSH2 0x383 JUMPI PUSH2 0x382 PUSH2 0x310 JUMP JUMPDEST JUMPDEST PUSH0 PUSH2 0x390 DUP5 DUP3 DUP6 ADD PUSH2 0x35A JUMP JUMPDEST SWAP2 POP POP SWAP3 SWAP2 POP POP JUMP JUMPDEST PUSH0 DUP2 SWAP1 POP SWAP2 SWAP1 POP JUMP JUMPDEST PUSH2 0x3AB DUP2 PUSH2 0x399 JUMP JUMPDEST DUP3 MSTORE POP POP JUMP JUMPDEST PUSH0 PUSH1 0x20 DUP3 ADD SWAP1 POP PUSH2 0x3C4 PUSH0 DUP4 ADD DUP5 PUSH2 0x3A2 JUMP JUMPDEST SWAP3 SWAP2 POP POP JUMP JUMPDEST PUSH2 0x3D3 DUP2 PUSH2 0x399 JUMP JUMPDEST DUP2 EQ PUSH2 0x3DD JUMPI PUSH0 DUP1 REVERT JUMPDEST POP JUMP JUMPDEST PUSH0 DUP2 CALLDATALOAD SWAP1 POP PUSH2 0x3EE DUP2 PUSH2 0x3CA JUMP JUMPDEST SWAP3 SWAP2 POP POP JUMP JUMPDEST PUSH0 PUSH1 0x20 DUP3 DUP5 SUB SLT ISZERO PUSH2 0x409 JUMPI PUSH2 0x408 PUSH2 0x310 JUMP JUMPDEST JUMPDEST PUSH0 PUSH2 0x416 DUP5 DUP3 DUP6 ADD PUSH2 0x3E0 JUMP JUMPDEST SWAP2 POP POP SWAP3 SWAP2 POP POP JUMP JUMPDEST PUSH2 0x428 DUP2 PUSH2 0x333 JUMP JUMPDEST DUP3 MSTORE POP POP JUMP JUMPDEST PUSH0 PUSH1 0x20 DUP3 ADD SWAP1 POP PUSH2 0x441 PUSH0 DUP4 ADD DUP5 PUSH2 0x41F JUMP JUMPDEST SWAP3 SWAP2 POP POP JUMP JUMPDEST PUSH0 DUP3 DUP3 MSTORE PUSH1 0x20 DUP3 ADD SWAP1 POP SWAP3 SWAP2 POP POP JUMP JUMPDEST PUSH32 0x5472792073656E64696E672061746C6561737420312045746800000000000000 PUSH0 DUP3 ADD MSTORE POP JUMP JUMPDEST PUSH0 PUSH2 0x48B PUSH1 0x19 DUP4 PUSH2 0x447 JUMP JUMPDEST SWAP2 POP PUSH2 0x496 DUP3 PUSH2 0x457 JUMP JUMPDEST PUSH1 0x20 DUP3 ADD SWAP1 POP SWAP2 SWAP1 POP JUMP JUMPDEST PUSH0 PUSH1 0x20 DUP3 ADD SWAP1 POP DUP2 DUP2 SUB PUSH0 DUP4 ADD MSTORE PUSH2 0x4B8 DUP2 PUSH2 0x47F JUMP JUMPDEST SWAP1 POP SWAP2 SWAP1 POP JUMP JUMPDEST PUSH32 0x4E487B7100000000000000000000000000000000000000000000000000000000 PUSH0 MSTORE PUSH1 0x11 PUSH1 0x4 MSTORE PUSH1 0x24 PUSH0 REVERT JUMPDEST PUSH0 PUSH2 0x4F6 DUP3 PUSH2 0x399 JUMP JUMPDEST SWAP2 POP PUSH2 0x501 DUP4 PUSH2 0x399 JUMP JUMPDEST SWAP3 POP DUP3 DUP3 MUL PUSH2 0x50F DUP2 PUSH2 0x399 JUMP JUMPDEST SWAP2 POP DUP3 DUP3 DIV DUP5 EQ DUP4 ISZERO OR PUSH2 0x526 JUMPI PUSH2 0x525 PUSH2 0x4BF JUMP JUMPDEST JUMPDEST POP SWAP3 SWAP2 POP POP JUMP JUMPDEST PUSH32 0x4E487B7100000000000000000000000000000000000000000000000000000000 PUSH0 MSTORE PUSH1 0x12 PUSH1 0x4 MSTORE PUSH1 0x24 PUSH0 REVERT JUMPDEST PUSH0 PUSH2 0x564 DUP3 PUSH2 0x399 JUMP JUMPDEST SWAP2 POP PUSH2 0x56F DUP4 PUSH2 0x399 JUMP JUMPDEST SWAP3 POP DUP3 PUSH2 0x57F JUMPI PUSH2 0x57E PUSH2 0x52D JUMP JUMPDEST JUMPDEST DUP3 DUP3 DIV SWAP1 POP SWAP3 SWAP2 POP POP JUMP JUMPDEST PUSH0 PUSH10 0xFFFFFFFFFFFFFFFFFFFF DUP3 AND SWAP1 POP SWAP2 SWAP1 POP JUMP JUMPDEST PUSH2 0x5A8 DUP2 PUSH2 0x58A JUMP JUMPDEST DUP2 EQ PUSH2 0x5B2 JUMPI PUSH0 DUP1 REVERT JUMPDEST POP JUMP JUMPDEST PUSH0 DUP2 MLOAD SWAP1 POP PUSH2 0x5C3 DUP2 PUSH2 0x59F JUMP JUMPDEST SWAP3 SWAP2 POP POP JUMP JUMPDEST PUSH0 DUP2 SWAP1 POP SWAP2 SWAP1 POP JUMP JUMPDEST PUSH2 0x5DB DUP2 PUSH2 0x5C9 JUMP JUMPDEST DUP2 EQ PUSH2 0x5E5 JUMPI PUSH0 DUP1 REVERT JUMPDEST POP JUMP JUMPDEST PUSH0 DUP2 MLOAD SWAP1 POP PUSH2 0x5F6 DUP2 PUSH2 0x5D2 JUMP JUMPDEST SWAP3 SWAP2 POP POP JUMP JUMPDEST PUSH0 DUP2 MLOAD SWAP1 POP PUSH2 0x60A DUP2 PUSH2 0x3CA JUMP JUMPDEST SWAP3 SWAP2 POP POP JUMP JUMPDEST PUSH0 DUP1 PUSH0 DUP1 PUSH0 PUSH1 0xA0 DUP7 DUP9 SUB SLT ISZERO PUSH2 0x629 JUMPI PUSH2 0x628 PUSH2 0x310 JUMP JUMPDEST JUMPDEST PUSH0 PUSH2 0x636 DUP9 DUP3 DUP10 ADD PUSH2 0x5B5 JUMP JUMPDEST SWAP6 POP POP PUSH1 0x20 PUSH2 0x647 DUP9 DUP3 DUP10 ADD PUSH2 0x5E8 JUMP JUMPDEST SWAP5 POP POP PUSH1 0x40 PUSH2 0x658 DUP9 DUP3 DUP10 ADD PUSH2 0x5FC JUMP JUMPDEST SWAP4 POP POP PUSH1 0x60 PUSH2 0x669 DUP9 DUP3 DUP10 ADD PUSH2 0x5FC JUMP JUMPDEST SWAP3 POP POP PUSH1 0x80 PUSH2 0x67A DUP9 DUP3 DUP10 ADD PUSH2 0x5B5 JUMP JUMPDEST SWAP2 POP POP SWAP3 SWAP6 POP SWAP3 SWAP6 SWAP1 SWAP4 POP JUMP JUMPDEST PUSH0 PUSH2 0x691 DUP3 PUSH2 0x5C9 JUMP JUMPDEST SWAP2 POP PUSH2 0x69C DUP4 PUSH2 0x5C9 JUMP JUMPDEST SWAP3 POP DUP3 DUP3 MUL PUSH2 0x6AA DUP2 PUSH2 0x5C9 JUMP JUMPDEST SWAP2 POP PUSH32 0x8000000000000000000000000000000000000000000000000000000000000000 DUP5 EQ PUSH0 DUP5 SLT AND ISZERO PUSH2 0x6E1 JUMPI PUSH2 0x6E0 PUSH2 0x4BF JUMP JUMPDEST JUMPDEST DUP3 DUP3 SDIV DUP5 EQ DUP4 ISZERO OR PUSH2 0x6F6 JUMPI PUSH2 0x6F5 PUSH2 0x4BF JUMP JUMPDEST JUMPDEST POP SWAP3 SWAP2 POP POP JUMP INVALID LOG2 PUSH5 0x6970667358 0x22 SLT KECCAK256 0x4C TIMESTAMP 0xCF PUSH4 0xCF9B70F3 LOG1 SWAP8 0xE6 GASLIMIT 0xD2 PC 0xF EXP 0xB7 0xAE 0x23 PUSH15 0xC8CFC4703E7D7F18B82FE39264736F PUSH13 0x634300081A0033000000000000 "
				},
				"gasEstimates": {
					"creation": {
						"codeDepositCost": "368600",
						"executionCost": "22508",
						"totalCost": "391108"
					},
					"external": {
						"addressToAmountFunded(address)": "2780",
						"fund()": "infinite",
						"funders(uint256)": "4966",
						"minUSD()": "2468"
					}
				},
				"methodIdentifiers": {
					"addressToAmountFunded(address)": "3e47d6f3",
					"fund()": "b60d4288",
					"funders(uint256)": "dc0d3dff",
					"minUSD()": "dc992aa0"
				}
			},
			"storageLayout": {
				"storage": [
					{
						"astId": 58,
						"contract": "contracts/FundMe.sol:FundMe",
						"label": "minUSD",
						"offset": 0,
						"slot": "0",
						"type": "t_uint256"
					},
					{
						"astId": 61,
						"contract": "contracts/FundMe.sol:FundMe",
						"label": "funders",
						"offset": 0,
						"slot": "1",
						"type": "t_array(t_address)dyn_storage"
					},
					{
						"astId": 65,
						"contract": "contracts/FundMe.sol:FundMe",
						"label": "addressToAmountFunded",
						"offset": 0,
						"slot": "2",
						"type": "t_mapping(t_address,t_uint256)"
					}
				],
				"types": {
					"t_address": {
						"encoding": "inplace",
						"label": "address",
						"numberOfBytes": "20"
					},
					"t_array(t_address)dyn_storage": {
						"base": "t_address",
						"encoding": "dynamic_array",
						"label": "address[]",
						"numberOfBytes": "32"
					},
					"t_mapping(t_address,t_uint256)": {
						"encoding": "mapping",
						"key": "t_address",
						"label": "mapping(address => uint256)",
						"numberOfBytes": "32",
						"value": "t_uint256"
					},
					"t_uint256": {
						"encoding": "inplace",
						"label": "uint256",
						"numberOfBytes": "32"
					}
				}
			},
			"userdoc": {
				"kind": "user",
				"methods": {},
				"version": 1
			}
		}
	}
}